:100000000C9462000C948A000C948A000C948A0070
:100010000C948A000C948A000C948A000C948A0038
:100020000C948A000C948A000C948A000C948A0028
:100030000C948A000C948A000C948A000C948A0018
:100040000C944F030C948A000C941D030C94F7023B
:100050000C948A000C948A000C948A000C948A00F8
:100060000C948A000C948A000000000023002600F3
:10007000290000000008000201000003040700003E
:1000800000000000000000000000250028002B00F8
:1000900000000000240027002A00040404040404D3
:1000A0000404020202020202030303030303010227
:1000B00004081020408001020408102001020408F6
:1000C0001020CD0411241FBECFEFD8E0DEBFCDBF7E
:1000D00011E0A0E0B1E0E8E4FAE002C005900D9282
:1000E000A436B107D9F722E0A4E6B1E001C01D9221
:1000F000AA30B207E1F710E0C2E6D0E004C02197D1
:10010000FE010E941C05C136D107C9F70E94990360
:100110000C9422050C940000CF93DF9390E0FC0137
:10012000E255FF4F249186569F4FFC01849188230E
:10013000C1F090E0880F991FFC01E057FF4FC59177
:10014000D491FC01EA57FF4FA591B4919FB7F89461
:100150008881E22FE0958E2388838C91E823EC93AD
:100160009FBFDF91CF910895AF92BF92CF92DF9260
:10017000EF92FF920F931F93CF93DF936C017B015C
:100180008B01040F151FEB015E01AE18BF08C017ED
:10019000D10759F06991D601ED91FC910190F08160
:1001A000E02DC6010995892B79F7C501DF91CF9123
:1001B0001F910F91FF90EF90DF90CF90BF90AF9085
:1001C0000895FC01538D448D252F30E0842F90E05D
:1001D000821B930B541710F0CF9608950197089542
:1001E000FC01918D828D981761F0A28DAE0FBF2F0B
:1001F000B11D5D968C91928D9F5F9F73928F90E061
:1002000008958FEF9FEF0895FC01918D828D9817CF
:1002100031F0828DE80FF11D858D90E008958FEF0C
:100220009FEF0895FC01918D228D892F90E0805CD5
:100230009F4F821B91098F73992708958DE691E056
:100240000E94120121E0892B09F420E0822F0895F9
:1002500080E090E0892B29F00E941E0181110C940E
:1002600000000895FC01A48DA80FB92FB11DA35A59
:10027000BF4F2C91848D90E001968F739927848FC6
:10028000A689B7892C93A089B1898C9183708064E9
:100290008C93938D848D981306C00288F389E02D8A
:1002A00080818F7D80830895EF92FF920F931F933B
:1002B000CF93DF93EC0181E0888F9B8D8C8D981319
:1002C0001AC0E889F989808185FF15C09FB7F89425
:1002D000EE89FF896083E889F98980818370806471
:1002E00080839FBF81E090E0DF91CF911F910F91BC
:1002F000FF90EF900895F62E0B8D10E00F5F1F4FCB
:100300000F731127E02E8C8D8E110CC00FB607FCD9
:10031000FACFE889F989808185FFF5CFCE010E9467
:100320003201F1CFEB8DEC0FFD2FF11DE35AFF4FA2
:10033000F0829FB7F8940B8FEA89FB8980818062F5
:10034000CFCFCF93DF93EC01888D8823B9F0AA89B2
:10035000BB89E889F9898C9185FD03C0808186FD80
:100360000DC00FB607FCF7CF8C9185FFF2CF8081CF
:1003700085FFEDCFCE010E943201E9CFDF91CF9111
:10038000089590E0FC01EE58FF4F2491FC01E255E6
:10039000FF4F3491FC01E656FF4FE491EE23C1F18B
:1003A000222339F02330E9F090F4213001F122309A
:1003B00011F1F0E0EE0FFF1FE859FF4FA591B49146
:1003C000EC91E32381E090E029F580E00895273067
:1003D000A9F02830C9F0243061F7809180008F7D2A
:1003E00003C0809180008F7780938000E2CF84B536
:1003F0008F7784BDDECF84B58F7DFBCF8091B00039
:100400008F778093B000D5CF8091B0008F7DF9CFEA
:1004100080E090E008953FB7F89480916901909151
:100420006A01A0916B01B0916C0126B5A89B05C033
:100430002F3F19F00196A11DB11D3FBFBA2FA92F63
:10044000982F8827BC01CD01620F711D811D911D60
:1004500042E0660F771F881F991F4A95D1F70895CC
:100460008F929F92AF92BF92CF92DF92EF92FF92C4
:100470000E940B024B015C0184E6C82ED12CE12CBA
:10048000F12C0E940B02681979098A099B09683EC0
:10049000734081059105A8F321E0C21AD108E10853
:1004A000F10888EE880E83E0981EA11CB11CC114CF
:1004B000D104E104F10429F7FF90EF90DF90CF9091
:1004C000BF90AF909F908F900895FC010190002005
:1004D000E9F73197AF01481B590BBC018DE691E05C
:1004E0000C94B4008F929F92AF92BF92CF92DF9202
:1004F000EF92FF920F931F93CF93DF93CDB7DEB7A9
:10050000A1970FB6F894DEBF0FBECDBF6C01990F57
:10051000EE08FF08F7FE47C06DE28DE691E00E940D
:1005200054018C0122273327A9012C193D094E09BA
:100530005F0919A2CE0181967C019AE0892E912C47
:10054000A12CB12CCA01B901A50194010E94FA04A1
:10055000605DF70162937F01211531054105510569
:1005600089F790E080E0309719F0CF010E94650292
:10057000080F191F88E191E00E946502800F911F0A
:10058000A1960FB6F894DEBF0FBECDBFDF91CF911D
:100590001F910F91FF90EF90DF90CF90BF90AF90A1
:1005A0009F908F900895A701960119A28E010F5D6B
:1005B0001F4F8AE0C82ED12CE12CF12CCA01B901C1
:1005C000A70196010E94FA04605DF80162938F0111
:1005D000211531054105510589F7309729F0CF01E3
:1005E0000E9465028C01C6CF10E000E0C3CF1F92CD
:1005F0000F920FB60F9211242F933F934F935F9357
:100600006F937F938F939F93AF93BF93EF93FF93DA
:100610008DE691E00E943201FF91EF91BF91AF9181
:100620009F918F917F916F915F914F913F912F910A
:100630000F900FBE0F901F9018951F920F920FB63C
:100640000F9211242F938F939F93EF93FF93E09139
:100650007D01F0917E018081E0918301F091840120
:1006600082FD1BC09081809186018F5F8F732091E6
:100670008701821741F0E0918601F0E0E359FE4FD7
:10068000958F80938601FF91EF919F918F912F918C
:100690000F900FBE0F901F9018958081F4CF1F927E
:1006A0000F920FB60F9211242F933F938F939F9326
:1006B000AF93BF938091650190916601A09167010E
:1006C000B09168013091640123E0230F2D3758F574
:1006D0000196A11DB11D2093640180936501909343
:1006E0006601A0936701B0936801809169019091C0
:1006F0006A01A0916B01B0916C010196A11DB11D21
:100700008093690190936A01A0936B01B0936C018F
:10071000BF91AF919F918F913F912F910F900FBEFD
:100720000F901F90189526E8230F0296A11DB11D6A
:10073000D2CF789484B5826084BD84B5816084BD55
:1007400085B5826085BD85B5816085BD80916E006F
:10075000816080936E0010928100809181008260A0
:1007600080938100809181008160809381008091DD
:1007700080008160809380008091B10084608093CC
:10078000B1008091B00081608093B00080917A00C8
:10079000846080937A0080917A00826080937A00EE
:1007A00080917A00816080937A0080917A008068DD
:1007B00080937A001092C100E0917D01F0917E015A
:1007C00082E08083E0917901F0917A011082E091DA
:1007D0007B01F0917C018FEC808310928501E09188
:1007E0008101F091820186E08083E0917F01F091A8
:1007F0008001808180618083E0917F01F0918001A0
:10080000808188608083E0917F01F0918001808108
:1008100080688083E0917F01F091800180818F7DED
:10082000808387E00E948C0088E00E948C0080E03A
:10083000E82E80E0F82EC2E0D0E001E010E0DD24F8
:10084000D39487E00E94C101892B91F48091040127
:1008500090910501019761F480910301882341F093
:100860000E943002D0930501C0930401109203014D
:1008700088E00E94C101892B69F580910401909163
:100880000501029739F580910201882319F18BE166
:1008900091E00E94650288E191E00E9465020E9459
:1008A00030021093050100930401809100019091A2
:1008B00001010196909301018093000184E391E08E
:1008C0000E94650280910001909101010E947202D4
:1008D0001092020188E00E94C101892B91F480915D
:1008E000040190910501019761F480910201882330
:1008F00041F00E943002D0930501C0930401109290
:10090000020187E00E94C101892B69F580910401F1
:1009100090910501029739F580910301882319F11F
:100920008BE491E00E94650288E191E00E946502FB
:100930000E943002809100019091010101979093F3
:1009400001018093000184E391E00E94650280919F
:100950000001909101010E94720210930501009321
:1009600004011092030187E00E94C101892B11F05C
:10097000D092030188E00E94C101892B11F0D0922E
:100980000201E114F10409F45CCF0E941E018823E6
:1009900009F457CF0E94000054CFEDE6F1E0138236
:1009A000128288EE93E0A0E0B0E084839583A68372
:1009B000B7838AE091E09183808385EC90E095870E
:1009C000848784EC90E09787868780EC90E0918B19
:1009D000808B81EC90E0938B828B82EC90E0958B06
:1009E000848B86EC90E0978B868B118E128E138E03
:1009F000148E0895A1E21A2EAA1BBB1BFD010DC087
:100A0000AA1FBB1FEE1FFF1FA217B307E407F507BE
:100A100020F0A21BB30BE40BF50B661F771F881F9A
:100A2000991F1A9469F760957095809590959B0130
:100A3000AC01BD01CF010895EE0FFF1F0590F491A9
:080A4000E02D0994F894FFCFAA
:100A4800FFFF01010100000000005401B400E100B3
:100A5800A1011201F00004010D0A00506572736FC4
:100A68006E20656E746572696E672064657465636F
:100A78007465640050656F706C6520696E746F20D2
:100A880074686520726F6F6D3A2000506572736FDD
:100A98006E2065786974696E67206465746563742F
:040AA8006564000081
:00000001FF
